:100000000C9463000C948B000C948B000C948B006C
:100010000C948B000C948B000C948B000C948B0034
:100020000C948B000C94DC000C948B000C948B00D3
:100030000C948B000C948D000C948B000C948B0012
:100040000C942A030C948B000C9443040C948B00A6
:100050000C948B000C948B000C948B000C948B00F4
:100060000C948B000C948B000000000024002700EF
:100070002A0000000000250028002B0000000000DE
:1000800023002600290004040404040404040202DA
:100090000202020203030303030301020408102007
:1000A0004080010204081020010204081020000012
:1000B0000007000201000003040600000000000029
:1000C00000002202C80511241FBECFEFD8E0DEBF1A
:1000D000CDBF11E0A0E0B1E0EAE1FEE002C0059092
:1000E0000D92AA32B107D9F712E0AAE2B1E001C03D
:1000F0001D92A338B107E1F710E0C6ECD0E004C0D0
:100100002297FE010E940707C23CD107C9F70E944F
:1001100023030C940B070C9400001F920F920FB650
:100120000F9211242F933F938F939F93AF93BF937D
:10013000EF93FF935E9AA0915601B09157018D9174
:100140009C911197E0915201F091530120813181EE
:10015000821B930B11969C938E9381919191F093B6
:100160005301E093520124E0880F991F2A95E1F78B
:10017000909581959F4F90938500809384005E9821
:10018000EC53F14061F058F08AE291E09093530112
:100190008093520184E498E411969C938E93FF918E
:1001A000EF91BF91AF919F918F913F912F910F90C0
:1001B0000FBE0F901F9018951F920F920FB60F92BF
:1001C00011242F933F938F939F93AF93BF93EF93FC
:1001D000FF9380915C0190915D014A9690935D013F
:1001E00080935C0120915C0130915D01E0915401AC
:1001F000F0915501808191812817390750F1289A93
:1002000010925D0110925C01A0915801B0915901CA
:100210008D919C91119720813181821B930B1196B6
:100220009C938E9381E0EE34F80769F060F08EE3E2
:1002300091E0909355018093540184E498E41196E1
:100240009C938E9305C03296F0935501E093540130
:10025000289880EB8093B200FF91EF91BF91AF910E
:100260009F918F913F912F910F900FBE0F901F90F4
:10027000189521E02093B100AFE6B0E01C921092F7
:100280008000E1E8F0E010821092820020832C933D
:10029000E0915201F091530181919191F0935301BA
:1002A000E093520134E0880F991F3A95E1F7909559
:1002B00081959F4F909385008093840020937000D8
:1002C00080EB8093B20008959A01DB01AA0FBB1F57
:1002D000FD01E258FE4F808191814817590730F1A6
:1002E000FD01E25AFE4F8081918184179507F0F05D
:1002F0006930710548F4A050BF4FED91FC91EE0FAD
:10030000FF1FE65DFE4F0DC06950704067307105FC
:1003100068F4A050BF4FED91FC91EE0FFF1FE25C1F
:10032000FE4F3183208320E030E002C021E030E046
:10033000C9010895603171051CF021E030E00EC064
:10034000FB01EE0FFF1FDF01A25ABE4F2D933C931E
:10035000E258FE4F5183408320E030E0C901089508
:1003600087E061E00E94F60389E061E00E94F60305
:1003700010925B0110925A0110925D0110925C0183
:100380008AE291E090935301809352012EE331E091
:1003900030935501209354014296909357018093D6
:1003A00056012E5E3F4F309359012093580184E44B
:1003B00098E490933D0180933C0190935101809388
:1003C00050010E94390187E060E00E94F60389E055
:1003D00060E00E94F60308950F931F93CF93DF937D
:1003E0002EE531E0CEE7D1E080E090E04CED55E045
:1003F00000ED17E068EE73E0FC01EE0FFF1FDF0178
:10040000A65DBE4F11965C934E93E25CFE4F518306
:100410004083F901019311939F01699379930196A8
:100420008A30910549F787E061E00E94D60389E0B0
:1004300061E00E94D603569A209ADF91CF911F91D6
:100440000F9108958EE991E00E94EC0108958F923A
:100450009F92AF92BF92CF92DF92EF92FF920F9353
:100460001F934C0100D000D0882777FD8095982FEE
:1004700020E639E040E050E0EDB7FEB7218332835B
:100480004383548320E030E040E050E0F4EBEF2E73
:10049000F12C012D112DE8E5AE2EE2E0BE2EC12C8F
:1004A000D12C0E9439069B01AC017093A20160938C
:1004B000A1010F900F900F900F908EE991E0B40181
:1004C000A9010E9464011F910F91FF90EF90DF90AE
:1004D000CF90BF90AF909F908F9008950F931F93F0
:1004E00080E792E00E9479058330C0F080E792E0D7
:1004F0000E948D059093A00180939F018F3F9105ED
:1005000069F480E792E00E948D058C0180E792E01B
:100510000E948D05BC01C8010E9427021F910F9106
:100520000895CF92DF92EF92FF920F931F93CF9394
:10053000DF9380E792E040E052EC61E070E00E94DF
:100540008004B3EAEB2EB1E0FB2E03EC11E0C0E037
:10055000D0E0AAE5CA2ED12C8EE991E0BE0148E593
:1005600052E020E639E00E949A018EE991E0BE0156
:100570004CED55E00E946401F701C192D1927F01D8
:10058000F801C192D1928F012196C031D10521F796
:100590008EE991E00E94B0018EE991E061E070E0A7
:1005A0004CED55E00E94640164EF71E080E090E062
:1005B0000E9472038EE991E062E070E04CED55E03C
:1005C0000E94640164EF71E080E090E00E94720399
:1005D0008EE991E063E070E04CED55E00E9464012B
:1005E00064EF71E080E090E00E9472038EE991E098
:1005F00064E070E04CED55E00E94640164EF71E04E
:1006000080E090E00E9472038EE991E065E070E086
:1006100040ED57E00E94640164EF71E080E090E0FB
:100620000E9472038EE991E066E070E040EB54E0D6
:100630000E946401DF91CF911F910F91FF90EF9085
:10064000DF90CF9008950E949C030E9491020E9427
:100650006E02FDCF1F920F920FB60F9211242F93AF
:100660003F938F939F93AF93BF938091E7019091B6
:10067000E801A091E901B091EA013091EB01019606
:10068000A11DB11D232F2D5F2D3720F02D57019671
:10069000A11DB11D2093EB018093E7019093E80128
:1006A000A093E901B093EA018091E3019091E40104
:1006B000A091E501B091E6010196A11DB11D8093C5
:1006C000E3019093E401A093E501B093E601BF91AB
:1006D000AF919F918F913F912F910F900FBE0F90EF
:1006E0001F901895EF92FF920F931F937B018C013F
:1006F0008FB7F8944091E7015091E8016091E901CA
:100700007091EA018FBF2FB7F8948091E701909123
:10071000E801A091E901B091EA012FBF841B950B7C
:10072000A60BB70BE816F9060A071B0760F71F911F
:100730000F91FF90EF900895789484B5826084BD06
:1007400084B5816084BD85B5826085BD85B58160D5
:1007500085BDEEE6F0E0808181608083E1E8F0E035
:10076000808182608083808181608083E0E8F0E026
:10077000808181608083E1EBF0E080818460808310
:10078000E0EBF0E0808181608083EAE7F0E0808147
:1007900084608083808182608083808181608083A7
:1007A0008081806880831092C1000895282F30E0F6
:1007B000C90186569F4FFC0194912A573F4FF9017A
:1007C0008491882391F0E82FF0E0EE0FFF1FE859A5
:1007D000FF4FA591B491662329F48C9190958923BC
:1007E0008C9308958C91892B8C930895482F50E019
:1007F000CA0182559F4FFC012491CA0186569F4F22
:10080000FC0194914A575F4FFA0134913323D1F19F
:10081000222331F1233021F4809180008F7705C0AD
:10082000243031F4809180008F7D8093800018C047
:10083000213019F484B58F7704C0223021F484B5B7
:100840008F7D84BD0DC0263021F48091B0008F775C
:1008500005C0273029F48091B0008F7D8093B000CF
:10086000E32FF0E0EE0FFF1FEE58FF4FA591B4917C
:10087000662329F48C91909589238C9308958C910B
:10088000892B8C9308951F920F920FB60F9211240B
:100890002F933F934F935F936F937F938F939F9388
:1008A000AF93BF93EF93FF934091C600E0916C022A
:1008B000F0916D02CF01019660E870E00E94A10600
:1008C0009C0180916E0290916F022817390739F0D0
:1008D000E451FE4F408330936D0220936C02FF91F0
:1008E000EF91BF91AF919F918F917F916F915F91A8
:1008F0004F913F912F910F900FBE0F901F90189521
:100900005F926F927F928F929F92AF92BF92CF929F
:10091000DF92EF92FF920F931F93CF93DF93EC013F
:100920003A014B01413482E458078FE0680780E0C8
:1009300078070CF07FC060E874E88EE190E0A401D5
:1009400093010E94D6062150304040405040CA01D9
:10095000B90122E030E040E050E00E94D6065901A3
:100960006A01A6019501209530954095509594E037
:10097000220F331F441F551F9A95D1F760E074E290
:1009800084EF90E00E94D606CA01B9012FEF30E053
:1009900040E050E00E948206A40193010E94D60626
:1009A000C90181509F4F181619061CF4522E5A94F3
:1009B00003C055245394521A60E079E08DE390E02F
:1009C000A40193010E94D60621503040404050407F
:1009D000CA01B90122E030E040E050E00E94D606B2
:1009E000209530954095509583E0220F331F441F8A
:1009F000551F8A95D1F760E074E284EF90E00E9481
:100A0000D606CA01B9012FEF30E040E050E00E9465
:100A10008206A40193010E94D606C90181509F4F0E
:100A2000181619061CF4822F815002C081E0821B27
:100A3000851500F5E885F98581E090E00A8802C017
:100A4000880F991F0A94E2F7808360E079E08DE3D4
:100A500090E0A40193010E94D6062150304040400E
:100A60005040CA01B90122E030E040E050E00E946D
:100A7000D60604C0E885F98510829501EC81FD81D8
:100A80003083EE81FF812083EA85FB85208141E070
:100A900050E0CA010E8402C0880F991F0A94E2F741
:100AA000282B2083EA85FB852081CA010F8402C0A0
:100AB000880F991F0A94E2F7282B2083EA85FB858B
:100AC0008081088802C0440F551F0A94E2F7842BE6
:100AD0008083DF91CF911F910F91FF90EF90DF9076
:100AE000CF90BF90AF909F908F907F906F905F90CE
:100AF0000895DC011296ED91FC911397E058FF4F99
:100B00008191919180589F4F20813181821B930B5D
:100B100060E870E00E94A1060895CF93DF93DC01A6
:100B20001296ED91FC911397EF01CE57DF4F48815C
:100B30005981E058FF4F80819181E058F04084173F
:100B4000950719F42FEF3FEF0CC0E40FF51F20813C
:100B5000CA01019660E870E00E94A106998388832B
:100B600030E0C901DF91CF910895FC01A085B185E6
:100B700021898C9190E0022E02C0959587950A9468
:100B8000E2F780FFF6CF0484F585E02D60830895B9
:100B900084E291E090937102809370028CEE91E078
:100BA000909373028093720285EC90E090937502AB
:100BB0008093740284EC90E09093770280937602A5
:100BC00080EC90E0909379028093780281EC90E041
:100BD00090937B0280937A0286EC90E090937D0262
:100BE00080937C0284E080937E0283E080937F0286
:100BF00087E08093800285E08093810281E080938A
:100C0000820208950F931F93CF93DF938C01EB0122
:100C100009C02196D801ED91FC910190F081E02D61
:100C2000C801099568816623A1F7DF91CF911F91D3
:100C30000F910895EF92FF920F931F93CF93DF933D
:100C40008C017B01EA010CC0D7016D917D01D801B7
:100C5000ED91FC910190F081E02DC801099521975B
:100C6000209791F7DF91CF911F910F91FF90EF9017
:100C700008952F923F924F925F926F927F928F9240
:100C80009F92AF92BF92CF92DF92EF92FF920F931B
:100C90001F93DF93CF93CDB7DEB73B014C01190112
:100CA0002A016D897E898F89988D6A197B098C0943
:100CB0009D09621A730A840A950AA40193010E948D
:100CC0008206E218F30804091509A80197010E9499
:100CD000D6062A0D3B1D4C1D5D1DB901CA01CF91E1
:100CE000DF911F910F91FF90EF90DF90CF90BF9019
:100CF000AF909F908F907F906F905F904F903F90BC
:100D00002F900895629FD001739FF001829FE00DA4
:100D1000F11D649FE00DF11D929FF00D839FF00D7A
:100D2000749FF00D659FF00D9927729FB00DE11D26
:100D3000F91F639FB00DE11DF91FBD01CF01112403
:100D4000089597FB092E07260AD077FD04D049D0D5
:100D500006D000201AF4709561957F4F0895F6F73C
:100D6000909581959F4F0895A1E21A2EAA1BBB1B57
:100D7000FD010DC0AA1FBB1FEE1FFF1FA217B30767
:100D8000E407F50720F0A21BB30BE40BF50B661F7D
:100D9000771F881F991F1A9469F760957095809541
:100DA00090959B01AC01BD01CF01089597FB092EE1
:100DB00005260ED057FD04D0D7DF0AD0001C38F42A
:100DC00050954095309521953F4F4F4F5F4F089577
:100DD000F6F790958095709561957F4F8F4F9F4F57
:100DE0000895AA1BBB1B51E107C0AA1FBB1FA61772
:100DF000B70710F0A61BB70B881F991F5A95A9F7C4
:100E000080959095BC01CD010895EE0FFF1F0590D0
:0A0E1000F491E02D0994F894FFCF4F
:100E1A0000000100040005000200060003000700AC
:100E2A00080003000000040001000500020006009B
:0A0E3A0000000000B50502061A06CC
:00000001FF
